{
  "contractName": "Election",
  "abi": [
    {
      "inputs": [],
      "payable": false,
      "stateMutability": "nonpayable",
      "type": "constructor"
    },
    {
      "anonymous": false,
      "inputs": [
        {
          "indexed": false,
          "internalType": "uint256",
          "name": "indexed_candidateId",
          "type": "uint256"
        }
      ],
      "name": "addCandidateEvent",
      "type": "event"
    },
    {
      "anonymous": false,
      "inputs": [
        {
          "indexed": false,
          "internalType": "uint256",
          "name": "indexed_candidateId",
          "type": "uint256"
        }
      ],
      "name": "votedEvent",
      "type": "event"
    },
    {
      "constant": true,
      "inputs": [
        {
          "internalType": "uint256",
          "name": "",
          "type": "uint256"
        }
      ],
      "name": "candidates",
      "outputs": [
        {
          "internalType": "uint256",
          "name": "id",
          "type": "uint256"
        },
        {
          "internalType": "string",
          "name": "name",
          "type": "string"
        },
        {
          "internalType": "uint256",
          "name": "voteCount",
          "type": "uint256"
        },
        {
          "internalType": "string",
          "name": "party",
          "type": "string"
        }
      ],
      "payable": false,
      "stateMutability": "view",
      "type": "function"
    },
    {
      "constant": true,
      "inputs": [],
      "name": "candidatesCount",
      "outputs": [
        {
          "internalType": "uint256",
          "name": "",
          "type": "uint256"
        }
      ],
      "payable": false,
      "stateMutability": "view",
      "type": "function"
    },
    {
      "constant": true,
      "inputs": [],
      "name": "voteTotal",
      "outputs": [
        {
          "internalType": "uint256",
          "name": "",
          "type": "uint256"
        }
      ],
      "payable": false,
      "stateMutability": "view",
      "type": "function"
    },
    {
      "constant": true,
      "inputs": [
        {
          "internalType": "address",
          "name": "",
          "type": "address"
        }
      ],
      "name": "voters",
      "outputs": [
        {
          "internalType": "bool",
          "name": "",
          "type": "bool"
        }
      ],
      "payable": false,
      "stateMutability": "view",
      "type": "function"
    },
    {
      "constant": false,
      "inputs": [
        {
          "internalType": "string",
          "name": "_name",
          "type": "string"
        },
        {
          "internalType": "string",
          "name": "_party",
          "type": "string"
        }
      ],
      "name": "addCandidate",
      "outputs": [],
      "payable": false,
      "stateMutability": "nonpayable",
      "type": "function"
    },
    {
      "constant": false,
      "inputs": [
        {
          "internalType": "uint256",
          "name": "_candidateId",
          "type": "uint256"
        }
      ],
      "name": "vote",
      "outputs": [],
      "payable": false,
      "stateMutability": "nonpayable",
      "type": "function"
    }
  ],
  "bytecode": "0x608060405234801561001057600080fd5b50610a1c806100206000396000f3fe608060405234801561001057600080fd5b50600436106100625760003560e01c80630121b93f1461006757806326541b56146100955780632d35a8a2146101e75780633477ee2e146102055780633e808c9014610326578063a3ec138d14610344575b600080fd5b6100936004803603602081101561007d57600080fd5b81019080803590602001909291905050506103a0565b005b6101e5600480360360408110156100ab57600080fd5b81019080803590602001906401000000008111156100c857600080fd5b8201836020820111156100da57600080fd5b803590602001918460018302840111640100000000831117156100fc57600080fd5b91908080601f016020809104026020016040519081016040528093929190818152602001838380828437600081840152601f19601f8201169050808301925050505050505091929192908035906020019064010000000081111561015f57600080fd5b82018360208201111561017157600080fd5b8035906020019184600183028401116401000000008311171561019357600080fd5b91908080601f016020809104026020016040519081016040528093929190818152602001838380828437600081840152601f19601f8201169050808301925050505050505091929192905050506105cf565b005b6101ef610702565b6040518082815260200191505060405180910390f35b6102316004803603602081101561021b57600080fd5b8101908080359060200190929190505050610708565b604051808581526020018060200184815260200180602001838103835286818151815260200191508051906020019080838360005b83811015610281578082015181840152602081019050610266565b50505050905090810190601f1680156102ae5780820380516001836020036101000a031916815260200191505b50838103825284818151815260200191508051906020019080838360005b838110156102e75780820151818401526020810190506102cc565b50505050905090810190601f1680156103145780820380516001836020036101000a031916815260200191505b50965050505050505060405180910390f35b61032e610868565b6040518082815260200191505060405180910390f35b6103866004803603602081101561035a57600080fd5b81019080803573ffffffffffffffffffffffffffffffffffffffff16906020019092919050505061086e565b604051808215151515815260200191505060405180910390f35b600260003373ffffffffffffffffffffffffffffffffffffffff1673ffffffffffffffffffffffffffffffffffffffff16815260200190815260200160002060009054906101000a900460ff1615610443576040517f08c379a00000000000000000000000000000000000000000000000000000000081526004018080602001828103825260238152602001806109346023913960400191505060405180910390fd5b60008111801561045557506001548111155b6104aa576040517f08c379a000000000000000000000000000000000000000000000000000000000815260040180806020018281038252602a815260200180610988602a913960400191505060405180910390fd5b60026001541015610506576040517f08c379a00000000000000000000000000000000000000000000000000000000081526004018080602001828103825260368152602001806109b26036913960400191505060405180910390fd5b6001600260003373ffffffffffffffffffffffffffffffffffffffff1673ffffffffffffffffffffffffffffffffffffffff16815260200190815260200160002060006101000a81548160ff021916908315150217905550600080828152602001908152602001600020600201600081548092919060010191905055506003600081548092919060010191905055507ffff3c900d938d21d0990d786e819f29b8d05c1ef587b462b939609625b684b16816040518082815260200191505060405180910390a150565b60006003541461062a576040517f08c379a00000000000000000000000000000000000000000000000000000000081526004018080602001828103825260318152602001806109576031913960400191505060405180910390fd5b600160008154809291906001019190505550604051806080016040528060015481526020018381526020016000815260200182815250600080600154815260200190815260200160002060008201518160000155602082015181600101908051906020019061069a92919061088e565b506040820151816002015560608201518160030190805190602001906106c192919061088e565b509050507f256327ff1553bea8de188ecb0e6c936206cd7bd2f2a6ee189faed299944a03c56001546040518082815260200191505060405180910390a15050565b60015481565b6000602052806000526040600020600091509050806000015490806001018054600181600116156101000203166002900480601f0160208091040260200160405190810160405280929190818152602001828054600181600116156101000203166002900480156107ba5780601f1061078f576101008083540402835291602001916107ba565b820191906000526020600020905b81548152906001019060200180831161079d57829003601f168201915b505050505090806002015490806003018054600181600116156101000203166002900480601f01602080910402602001604051908101604052809291908181526020018280546001816001161561010002031660029004801561085e5780601f106108335761010080835404028352916020019161085e565b820191906000526020600020905b81548152906001019060200180831161084157829003601f168201915b5050505050905084565b60035481565b60026020528060005260406000206000915054906101000a900460ff1681565b828054600181600116156101000203166002900490600052602060002090601f016020900481019282601f106108cf57805160ff19168380011785556108fd565b828001600101855582156108fd579182015b828111156108fc5782518255916020019190600101906108e1565b5b50905061090a919061090e565b5090565b61093091905b8082111561092c576000816000905550600101610914565b5090565b9056fe566f746520616c726561647920636173742066726f6d2074686973206164647265737343616e6e6f74207375626d69742063616e64696461746520616674657220666972737420766f7465207265636f7264656443616e646964617465204944206973206e6f7420696e2072616e6765206f662063616e646964617465734d757374206265206174206c6561737420322063616e64696461746573206265666f726520766f7465732063616e2062652063617374a265627a7a723158206faf083c7c783d59fde67d41ccd65f9c8a49817d138cca977321ca2a1c4ae49e64736f6c63430005100032",
  "source": "pragma solidity 0.5.16;\n\ncontract Election {\n    // Constructor\n    constructor() public {}\n\n    struct Candidate {\n        uint id;\n        string name;\n        uint voteCount;\n        string party;\n    }\n\n    // Read/write Candidates\n    mapping(uint => Candidate) public candidates;\n\n    // Store Candidates Count\n    uint public candidatesCount;\n\n\n    function addCandidate(string memory _name, string memory _party) public {\n        require(voteTotal == 0, \"Cannot submit candidate after first vote recorded\");\n\n        candidatesCount++;\n        candidates[candidatesCount] = Candidate(candidatesCount, _name, 0, _party);\n\n        emit addCandidateEvent(candidatesCount);\n    }\n\n    event addCandidateEvent (uint indexed_candidateId);\n\n    // Read/write voters\n    mapping(address => bool) public voters;\n\n    uint public voteTotal;\n\n    // vote takes candidate id, \n    function vote(uint _candidateId) public {\n        // require that they haven't voted before\n        require(!voters[msg.sender], \"Vote already cast from this address\");\n\n        // require a valid candidate, making sure their index is in mapping\n        require(_candidateId > 0 && _candidateId <= candidatesCount, \"Candidate ID is not in range of candidates\");\n\n        require(candidatesCount >= 2, \"Must be at least 2 candidates before votes can be cast\");\n\n        // record that voter has voted, making their address key true\n        voters[msg.sender] = true;\n\n        // update candidate vote Count, for matched id, based on key\n        candidates[_candidateId].voteCount++;\n        voteTotal++;\n\n        // trigger voted event\n        emit votedEvent(_candidateId);\n    }\n\n    event votedEvent (uint indexed_candidateId);\n}\n",
  "sourcePath": "/Users/sin/Documents/ethereumdev/voting-dapp/contracts/Election.sol",
  "compiler": {
    "name": "solc",
    "version": "0.5.16+commit.9c3226ce.Emscripten.clang"
  },
  "schemaVersion": "3.3.4",
  "updatedAt": "2021-03-09T14:07:16.336Z",
  "networkType": "ethereum",
  "devdoc": {
    "methods": {}
  },
  "userdoc": {
    "methods": {}
  }
}