{
  "contractName": "Poll",
  "abi": [
    {
      "constant": true,
      "inputs": [
        {
          "name": "",
          "type": "address"
        }
      ],
      "name": "votes",
      "outputs": [
        {
          "name": "",
          "type": "uint256"
        }
      ],
      "payable": false,
      "stateMutability": "view",
      "type": "function"
    },
    {
      "anonymous": false,
      "inputs": [
        {
          "indexed": false,
          "name": "_voter",
          "type": "address"
        },
        {
          "indexed": false,
          "name": "_value",
          "type": "uint256"
        }
      ],
      "name": "Voted",
      "type": "event"
    },
    {
      "constant": true,
      "inputs": [],
      "name": "getPoll",
      "outputs": [
        {
          "name": "",
          "type": "string"
        }
      ],
      "payable": false,
      "stateMutability": "view",
      "type": "function"
    },
    {
      "constant": false,
      "inputs": [
        {
          "name": "selection",
          "type": "uint256"
        }
      ],
      "name": "vote",
      "outputs": [],
      "payable": false,
      "stateMutability": "nonpayable",
      "type": "function"
    },
    {
      "constant": true,
      "inputs": [],
      "name": "checkPoll",
      "outputs": [
        {
          "name": "",
          "type": "uint256"
        }
      ],
      "payable": false,
      "stateMutability": "view",
      "type": "function"
    }
  ],
  "bytecode": "0x608060405260a060405190810160405280607f81526020017fe382b3e383bce38392e383bce381afe99d9ee8aab2e7a88ee381abe38199e38281526020017f8be381b9e3818de381a0e381a8e6809de38184e381bee38199e3818b3f2020e881526020017fb39be68890e381aae3828931e38292e3808120e58f8de5afbee381aae382893281526020017fe38292766f7465e996a2e695b0e381abe6b8a1e38197e381bee38199e3808200815250600190805190602001906100c29291906100d5565b503480156100cf57600080fd5b5061017a565b828054600181600116156101000203166002900490600052602060002090601f016020900481019282601f1061011657805160ff1916838001178555610144565b82800160010185558215610144579182015b82811115610143578251825591602001919060010190610128565b5b5090506101519190610155565b5090565b61017791905b8082111561017357600081600090555060010161015b565b5090565b90565b6103eb806101896000396000f300608060405260043610610062576000357c0100000000000000000000000000000000000000000000000000000000900463ffffffff1680630121b93f1461006757806303c3227814610094578063d8bff5a514610124578063e8d708331461017b575b600080fd5b34801561007357600080fd5b50610092600480360381019080803590602001909291905050506101a6565b005b3480156100a057600080fd5b506100a96102bf565b6040518080602001828103825283818151815260200191508051906020019080838360005b838110156100e95780820151818401526020810190506100ce565b50505050905090810190601f1680156101165780820380516001836020036101000a031916815260200191505b509250505060405180910390f35b34801561013057600080fd5b50610165600480360381019080803573ffffffffffffffffffffffffffffffffffffffff169060200190929190505050610361565b6040518082815260200191505060405180910390f35b34801561018757600080fd5b50610190610379565b6040518082815260200191505060405180910390f35b7f4d99b957a2bc29a30ebd96a7be8e68fe50a3c701db28a91436490b7d53870ca43382604051808373ffffffffffffffffffffffffffffffffffffffff1673ffffffffffffffffffffffffffffffffffffffff1681526020018281526020019250505060405180910390a160008060003373ffffffffffffffffffffffffffffffffffffffff1673ffffffffffffffffffffffffffffffffffffffff1681526020019081526020016000205414151561025e57600080fd5b60008111801561026e5750600381105b151561027957600080fd5b806000803373ffffffffffffffffffffffffffffffffffffffff1673ffffffffffffffffffffffffffffffffffffffff1681526020019081526020016000208190555050565b606060018054600181600116156101000203166002900480601f0160208091040260200160405190810160405280929190818152602001828054600181600116156101000203166002900480156103575780601f1061032c57610100808354040283529160200191610357565b820191906000526020600020905b81548152906001019060200180831161033a57829003601f168201915b5050505050905090565b60006020528060005260406000206000915090505481565b60008060003373ffffffffffffffffffffffffffffffffffffffff1673ffffffffffffffffffffffffffffffffffffffff168152602001908152602001600020549050905600a165627a7a72305820668eddbc0e3f8a9f8b4d0ff23c2a25019d07eaecfc2771ef8472358ccd7370ce0029",
  "source": "pragma solidity ^0.4.22;\ncontract Poll {\n    event Voted(address _voter, uint _value);\n    mapping(address => uint) public votes;\n    string pollSubject = \"コーヒーは非課税にするべきだと思いますか?  賛成なら1を、 反対なら2をvote関数に渡します。\";\n    \n    function getPoll() constant public returns (string) {\n\treturn pollSubject;\n    }\n    \n    function vote(uint selection) public {\n\temit Voted(msg.sender, selection);\n\trequire (votes[msg.sender] == 0);\n\trequire (selection > 0 && selection < 3);\n\tvotes[msg.sender] = selection;\n    }\n    function checkPoll() constant public returns (uint) {\n\treturn votes[msg.sender];\n    }\n} \n",
  "sourcePath": "/Users/sin/Documents/Projects/ethereumdev/begginning-blockchain/chapter6/contracts/Hello.sol",
  "compiler": {
    "name": "solc",
    "version": "0.4.22+commit.4cb486ee.Emscripten.clang"
  },
  "schemaVersion": "3.3.4",
  "updatedAt": "2021-02-18T14:31:47.203Z",
  "devdoc": {
    "methods": {}
  },
  "userdoc": {
    "methods": {}
  }
}