{
  "contractName": "Poll",
  "abi": [
    {
      "anonymous": false,
      "inputs": [
        {
          "indexed": false,
          "internalType": "address",
          "name": "_voter",
          "type": "address"
        },
        {
          "indexed": false,
          "internalType": "uint256",
          "name": "_value",
          "type": "uint256"
        }
      ],
      "name": "Voted",
      "type": "event"
    },
    {
      "constant": true,
      "inputs": [
        {
          "internalType": "address",
          "name": "",
          "type": "address"
        }
      ],
      "name": "votes",
      "outputs": [
        {
          "internalType": "uint256",
          "name": "",
          "type": "uint256"
        }
      ],
      "payable": false,
      "stateMutability": "view",
      "type": "function"
    },
    {
      "constant": true,
      "inputs": [],
      "name": "getPoll",
      "outputs": [
        {
          "internalType": "string",
          "name": "",
          "type": "string"
        }
      ],
      "payable": false,
      "stateMutability": "view",
      "type": "function"
    },
    {
      "constant": false,
      "inputs": [
        {
          "internalType": "uint256",
          "name": "selection",
          "type": "uint256"
        }
      ],
      "name": "vote",
      "outputs": [],
      "payable": false,
      "stateMutability": "nonpayable",
      "type": "function"
    },
    {
      "constant": true,
      "inputs": [],
      "name": "checkPoll",
      "outputs": [
        {
          "internalType": "uint256",
          "name": "",
          "type": "uint256"
        }
      ],
      "payable": false,
      "stateMutability": "view",
      "type": "function"
    }
  ],
  "bytecode": "0x60806040526040518060a00160405280607f81526020016104bb607f913960019080519060200190610032929190610045565b5034801561003f57600080fd5b506100ea565b828054600181600116156101000203166002900490600052602060002090601f016020900481019282601f1061008657805160ff19168380011785556100b4565b828001600101855582156100b4579182015b828111156100b3578251825591602001919060010190610098565b5b5090506100c191906100c5565b5090565b6100e791905b808211156100e35760008160009055506001016100cb565b5090565b90565b6103c2806100f96000396000f3fe608060405234801561001057600080fd5b506004361061004c5760003560e01c80630121b93f1461005157806303c322781461007f578063d8bff5a514610102578063e8d708331461015a575b600080fd5b61007d6004803603602081101561006757600080fd5b8101908080359060200190929190505050610178565b005b61008761028d565b6040518080602001828103825283818151815260200191508051906020019080838360005b838110156100c75780820151818401526020810190506100ac565b50505050905090810190601f1680156100f45780820380516001836020036101000a031916815260200191505b509250505060405180910390f35b6101446004803603602081101561011857600080fd5b81019080803573ffffffffffffffffffffffffffffffffffffffff16906020019092919050505061032f565b6040518082815260200191505060405180910390f35b610162610347565b6040518082815260200191505060405180910390f35b7f4d99b957a2bc29a30ebd96a7be8e68fe50a3c701db28a91436490b7d53870ca43382604051808373ffffffffffffffffffffffffffffffffffffffff1673ffffffffffffffffffffffffffffffffffffffff1681526020018281526020019250505060405180910390a160008060003373ffffffffffffffffffffffffffffffffffffffff1673ffffffffffffffffffffffffffffffffffffffff168152602001908152602001600020541461022e57600080fd5b60008111801561023e5750600381105b61024757600080fd5b806000803373ffffffffffffffffffffffffffffffffffffffff1673ffffffffffffffffffffffffffffffffffffffff1681526020019081526020016000208190555050565b606060018054600181600116156101000203166002900480601f0160208091040260200160405190810160405280929190818152602001828054600181600116156101000203166002900480156103255780601f106102fa57610100808354040283529160200191610325565b820191906000526020600020905b81548152906001019060200180831161030857829003601f168201915b5050505050905090565b60006020528060005260406000206000915090505481565b60008060003373ffffffffffffffffffffffffffffffffffffffff1673ffffffffffffffffffffffffffffffffffffffff1681526020019081526020016000205490509056fea265627a7a7231582065d8f35c87bf89fd19f78ba0f65d4c46503da2e25b81045228e30fd55628cd7a64736f6c63430005100032e382b3e383bce38392e383bce381afe99d9ee8aab2e7a88ee381abe38199e3828be381b9e3818de381a0e381a8e6809de38184e381bee38199e3818b3f2020e8b39be68890e381aae3828931e38292e3808120e58f8de5afbee381aae3828932e38292766f7465e996a2e695b0e381abe6b8a1e38197e381bee38199e38082",
  "source": "pragma solidity ^0.5.16;\r\ncontract Poll {\r\n    event Voted(address _voter, uint _value);\r\n    mapping(address => uint) public votes;\r\n    string pollSubject = \"コーヒーは非課税にするべきだと思いますか?  賛成なら1を、 反対なら2をvote関数に渡します。\";\r\n    \r\n    function getPoll() view public returns (string memory) {\r\n    \treturn pollSubject;\r\n    }\r\n    \r\n    function vote(uint selection) public {\r\n        emit Voted(msg.sender, selection);\r\n        require (votes[msg.sender] == 0);\r\n        require (selection > 0 && selection < 3);\r\n        votes[msg.sender] = selection;\r\n    }\r\n    function checkPoll() view public returns (uint) {\r\n        return votes[msg.sender];\r\n    }\r\n} \r\n",
  "sourcePath": "C:/Users/Sin Shimozono/Documents/ethereumdev/bgb-chap6-dap/contracts/Poll.sol",
  "compiler": {
    "name": "solc",
    "version": "0.5.16+commit.9c3226ce.Emscripten.clang"
  },
  "schemaVersion": "3.3.4",
  "updatedAt": "2021-03-13T09:41:19.040Z",
  "devdoc": {
    "methods": {}
  },
  "userdoc": {
    "methods": {}
  }
}