{
  "contractName": "Vote",
  "abi": [
    {
      "constant": true,
      "inputs": [
        {
          "name": "",
          "type": "uint256"
        }
      ],
      "name": "candidates",
      "outputs": [
        {
          "name": "",
          "type": "bytes32"
        }
      ],
      "payable": false,
      "stateMutability": "view",
      "type": "function"
    },
    {
      "inputs": [
        {
          "name": "args",
          "type": "bytes32[]"
        },
        {
          "name": "addresses",
          "type": "address[]"
        }
      ],
      "payable": false,
      "stateMutability": "nonpayable",
      "type": "constructor"
    },
    {
      "constant": true,
      "inputs": [],
      "name": "getNumCandidates",
      "outputs": [
        {
          "name": "",
          "type": "uint256"
        }
      ],
      "payable": false,
      "stateMutability": "view",
      "type": "function"
    },
    {
      "constant": true,
      "inputs": [
        {
          "name": "n",
          "type": "uint8"
        }
      ],
      "name": "getCandidate",
      "outputs": [
        {
          "name": "",
          "type": "bytes32"
        }
      ],
      "payable": false,
      "stateMutability": "view",
      "type": "function"
    },
    {
      "constant": true,
      "inputs": [
        {
          "name": "name",
          "type": "bytes32"
        }
      ],
      "name": "getVotesForCandidate",
      "outputs": [
        {
          "name": "",
          "type": "uint256"
        }
      ],
      "payable": false,
      "stateMutability": "view",
      "type": "function"
    },
    {
      "constant": false,
      "inputs": [
        {
          "name": "name",
          "type": "bytes32"
        }
      ],
      "name": "sendVote",
      "outputs": [
        {
          "name": "",
          "type": "bool"
        }
      ],
      "payable": false,
      "stateMutability": "nonpayable",
      "type": "function"
    },
    {
      "constant": true,
      "inputs": [],
      "name": "eligible",
      "outputs": [
        {
          "name": "",
          "type": "bool"
        }
      ],
      "payable": false,
      "stateMutability": "view",
      "type": "function"
    },
    {
      "constant": true,
      "inputs": [],
      "name": "validVoter",
      "outputs": [
        {
          "name": "",
          "type": "bool"
        }
      ],
      "payable": false,
      "stateMutability": "view",
      "type": "function"
    },
    {
      "constant": true,
      "inputs": [],
      "name": "caller",
      "outputs": [
        {
          "name": "",
          "type": "address"
        }
      ],
      "payable": false,
      "stateMutability": "view",
      "type": "function"
    }
  ],
  "bytecode": "0x608060405234801561001057600080fd5b506040516106673803806106678339810180604052810190808051820192919060200180518201929190505050600080825111801561005157506010825111155b151561005c57600080fd5b600860018054905010151561007057600080fd5b600090505b8151811015610105577fffffffffffffffffffffffffffffffffffffffffffffffffffffffffffffffff60008084848151811015156100b057fe5b9060200190602002015173ffffffffffffffffffffffffffffffffffffffff1673ffffffffffffffffffffffffffffffffffffffff168152602001908152602001600020819055508080600101915050610075565b826001908051906020019061011b929190610124565b5050505061019c565b828054828255906000526020600020908101928215610166579160200282015b82811115610165578251829060001916905591602001919060010190610144565b5b5090506101739190610177565b5090565b61019991905b8082111561019557600081600090555060010161017d565b5090565b90565b6104bc806101ab6000396000f30060806040526004361061008e576000357c0100000000000000000000000000000000000000000000000000000000900463ffffffff1680632f5bde23146100935780633477ee2e146100d85780635c06b06e146101215780638a4e18381461014c578063cde9370f1461017b578063cf1eee18146101c7578063d832d92f14610210578063fc9c8d391461023f575b600080fd5b34801561009f57600080fd5b506100c26004803603810190808035600019169060200190929190505050610296565b6040518082815260200191505060405180910390f35b3480156100e457600080fd5b50610103600480360381019080803590602001909291905050506102bb565b60405180826000191660001916815260200191505060405180910390f35b34801561012d57600080fd5b506101366102de565b6040518082815260200191505060405180910390f35b34801561015857600080fd5b506101616102eb565b604051808215151515815260200191505060405180910390f35b34801561018757600080fd5b506101a9600480360381019080803560ff169060200190929190505050610344565b60405180826000191660001916815260200191505060405180910390f35b3480156101d357600080fd5b506101f6600480360381019080803560001916906020019092919050505061036a565b604051808215151515815260200191505060405180910390f35b34801561021c57600080fd5b5061022561040f565b604051808215151515815260200191505060405180910390f35b34801561024b57600080fd5b50610254610488565b604051808273ffffffffffffffffffffffffffffffffffffffff1673ffffffffffffffffffffffffffffffffffffffff16815260200191505060405180910390f35b6000600260008360001916600019168152602001908152602001600020549050919050565b6001818154811015156102ca57fe5b906000526020600020016000915090505481565b6000600180549050905090565b6000806000803373ffffffffffffffffffffffffffffffffffffffff1673ffffffffffffffffffffffffffffffffffffffff16815260200190815260200160002054141561033c5760009050610341565b600190505b90565b600060018260ff1681548110151561035857fe5b90600052602060002001549050919050565b600061037461040f565b1515610383576000905061040a565b600160026000846000191660001916815260200190815260200160002054016002600084600019166000191681526020019081526020016000208190555060016000803373ffffffffffffffffffffffffffffffffffffffff1673ffffffffffffffffffffffffffffffffffffffff16815260200190815260200160002081905550600190505b919050565b60007fffffffffffffffffffffffffffffffffffffffffffffffffffffffffffffffff6000803373ffffffffffffffffffffffffffffffffffffffff1673ffffffffffffffffffffffffffffffffffffffff1681526020019081526020016000205414156104805760019050610485565b600090505b90565b6000339050905600a165627a7a72305820c40d494d17c335f59093fef368ef6f6625295b6cf1c49613cfd1b3ddf692c6840029",
  "source": "pragma solidity ^0.4.22;\n\ncontract Vote{\n    //maps each address to a boolean (has this key voted yet)\n    //mapping (bytes32 => bool) hasVoted;\n    mapping(address => int) voterLog;\n    \n    //array of candidate strings\n    bytes32 [] public candidates;\n    \n    //maps each candidate name to an integer holding their votes\n    mapping (bytes32 => uint) votes;\n        \n    //Constructor takes in an array of candidates\n    constructor(bytes32[] memory args, address[] memory addresses) public {\n\trequire(addresses.length > 0 && addresses.length <= 16);\n\trequire(candidates.length < 8);\n        for(uint i = 0; i < addresses.length; i++){\n            voterLog[addresses[i]] = -1;\n        }\n        candidates = args;\n    }\n    \n    /* --- PUBLIC FUNCTIONS --- */\n    \n    //returns the number of candidates\n    function getNumCandidates() public view returns (uint256) {\n        return candidates.length;\n    }    \n    \n    //returns the name of the nth candidate\n    function getCandidate(uint8 n) public view returns (bytes32){\n        return candidates[n];\n    }\n    \n    //returns the number of votes this candidate has recieved\n    function getVotesForCandidate(bytes32 name) public view returns (uint){\n        return votes[name];\n    }\n    \n    //returns true if vote was successful, false otherwise\n    function sendVote(bytes32 name) public returns (bool){\n        if (!eligible()){\n            return false;\n        }\n        \n        votes[name] = votes[name] + 1;\n        voterLog[msg.sender] = 1;\n        return true;\n    }\n    \n    //returns true if the address is eligible to cast a vote\n    function eligible() public view returns (bool){\n        if(voterLog[msg.sender] == -1){\n            return true;\n        }\n        return false;\n    }\n    \n    //returns true if the voter address is valid (regardless of if they have already voted)\n    function validVoter() public view returns(bool){\n        if(voterLog[msg.sender] == 0){\n            return false;\n        }\n        return true;\n    }\n    \n    //returns the address of the caller\n    function caller() public view returns (address){\n        return msg.sender;\n    }   \n}\n",
  "sourcePath": "/Users/sin/Documents/Projects/ethereumdev/devote/contracts/Vote.sol",
  "compiler": {
    "name": "solc",
    "version": "0.4.24+commit.e67f0147.Emscripten.clang"
  },
  "schemaVersion": "3.3.4",
  "updatedAt": "2021-03-04T16:22:37.440Z",
  "networkType": "ethereum",
  "devdoc": {
    "methods": {}
  },
  "userdoc": {
    "methods": {}
  }
}