{
  "contractName": "Greeter",
  "abi": [
    {
      "anonymous": false,
      "inputs": [
        {
          "indexed": true,
          "internalType": "address",
          "name": "previousOwner",
          "type": "address"
        },
        {
          "indexed": true,
          "internalType": "address",
          "name": "newOwner",
          "type": "address"
        }
      ],
      "name": "OwnershipTransferred",
      "type": "event"
    },
    {
      "inputs": [],
      "name": "owner",
      "outputs": [
        {
          "internalType": "address",
          "name": "",
          "type": "address"
        }
      ],
      "stateMutability": "view",
      "type": "function",
      "constant": true
    },
    {
      "inputs": [],
      "name": "renounceOwnership",
      "outputs": [],
      "stateMutability": "nonpayable",
      "type": "function"
    },
    {
      "inputs": [
        {
          "internalType": "address",
          "name": "newOwner",
          "type": "address"
        }
      ],
      "name": "transferOwnership",
      "outputs": [],
      "stateMutability": "nonpayable",
      "type": "function"
    },
    {
      "inputs": [],
      "name": "greet",
      "outputs": [
        {
          "internalType": "string",
          "name": "",
          "type": "string"
        }
      ],
      "stateMutability": "view",
      "type": "function",
      "constant": true
    },
    {
      "inputs": [
        {
          "internalType": "string",
          "name": "greeting",
          "type": "string"
        }
      ],
      "name": "setGreeting",
      "outputs": [],
      "stateMutability": "nonpayable",
      "type": "function"
    }
  ],
  "bytecode": "0x60806040526040518060400160405280600d81526020017f48656c6c6f2c20576f726c6421000000000000000000000000000000000000008152506001908051906020019061004f929190610118565b5034801561005c57600080fd5b50600061006d61011060201b60201c565b9050806000806101000a81548173ffffffffffffffffffffffffffffffffffffffff021916908373ffffffffffffffffffffffffffffffffffffffff1602179055508073ffffffffffffffffffffffffffffffffffffffff16600073ffffffffffffffffffffffffffffffffffffffff167f8be0079c531659141344cd1fd0a4f28419497f9722a3daafe3b4186f6b6457e060405160405180910390a35061021c565b600033905090565b828054610124906101bb565b90600052602060002090601f016020900481019282610146576000855561018d565b82601f1061015f57805160ff191683800117855561018d565b8280016001018555821561018d579182015b8281111561018c578251825591602001919060010190610171565b5b50905061019a919061019e565b5090565b5b808211156101b757600081600090555060010161019f565b5090565b600060028204905060018216806101d357607f821691505b602082108114156101e7576101e66101ed565b5b50919050565b7f4e487b7100000000000000000000000000000000000000000000000000000000600052602260045260246000fd5b61092d8061022b6000396000f3fe608060405234801561001057600080fd5b50600436106100575760003560e01c8063715018a61461005c5780638da5cb5b14610066578063a413686214610084578063cfae3217146100a0578063f2fde38b146100be575b600080fd5b6100646100da565b005b61006e610214565b60405161007b9190610770565b60405180910390f35b61009e6004803603810190610099919061063d565b61023d565b005b6100a86102cf565b6040516100b5919061078b565b60405180910390f35b6100d860048036038101906100d39190610614565b610361565b005b6100e261050a565b73ffffffffffffffffffffffffffffffffffffffff16610100610214565b73ffffffffffffffffffffffffffffffffffffffff1614610156576040517f08c379a000000000000000000000000000000000000000000000000000000000815260040161014d906107cd565b60405180910390fd5b600073ffffffffffffffffffffffffffffffffffffffff1660008054906101000a900473ffffffffffffffffffffffffffffffffffffffff1673ffffffffffffffffffffffffffffffffffffffff167f8be0079c531659141344cd1fd0a4f28419497f9722a3daafe3b4186f6b6457e060405160405180910390a360008060006101000a81548173ffffffffffffffffffffffffffffffffffffffff021916908373ffffffffffffffffffffffffffffffffffffffff160217905550565b60008060009054906101000a900473ffffffffffffffffffffffffffffffffffffffff16905090565b61024561050a565b73ffffffffffffffffffffffffffffffffffffffff16610263610214565b73ffffffffffffffffffffffffffffffffffffffff16146102b9576040517f08c379a00000000000000000000000000000000000000000000000000000000081526004016102b0906107cd565b60405180910390fd5b8181600191906102ca929190610512565b505050565b6060600180546102de9061086e565b80601f016020809104026020016040519081016040528092919081815260200182805461030a9061086e565b80156103575780601f1061032c57610100808354040283529160200191610357565b820191906000526020600020905b81548152906001019060200180831161033a57829003601f168201915b5050505050905090565b61036961050a565b73ffffffffffffffffffffffffffffffffffffffff16610387610214565b73ffffffffffffffffffffffffffffffffffffffff16146103dd576040517f08c379a00000000000000000000000000000000000000000000000000000000081526004016103d4906107cd565b60405180910390fd5b600073ffffffffffffffffffffffffffffffffffffffff168173ffffffffffffffffffffffffffffffffffffffff16141561044d576040517f08c379a0000000000000000000000000000000000000000000000000000000008152600401610444906107ad565b60405180910390fd5b8073ffffffffffffffffffffffffffffffffffffffff1660008054906101000a900473ffffffffffffffffffffffffffffffffffffffff1673ffffffffffffffffffffffffffffffffffffffff167f8be0079c531659141344cd1fd0a4f28419497f9722a3daafe3b4186f6b6457e060405160405180910390a3806000806101000a81548173ffffffffffffffffffffffffffffffffffffffff021916908373ffffffffffffffffffffffffffffffffffffffff16021790555050565b600033905090565b82805461051e9061086e565b90600052602060002090601f0160209004810192826105405760008555610587565b82601f1061055957803560ff1916838001178555610587565b82800160010185558215610587579182015b8281111561058657823582559160200191906001019061056b565b5b5090506105949190610598565b5090565b5b808211156105b1576000816000905550600101610599565b5090565b6000813590506105c4816108e0565b92915050565b60008083601f8401126105dc57600080fd5b8235905067ffffffffffffffff8111156105f557600080fd5b60208301915083600182028301111561060d57600080fd5b9250929050565b60006020828403121561062657600080fd5b6000610634848285016105b5565b91505092915050565b6000806020838503121561065057600080fd5b600083013567ffffffffffffffff81111561066a57600080fd5b610676858286016105ca565b92509250509250929050565b61068b81610809565b82525050565b600061069c826107ed565b6106a681856107f8565b93506106b681856020860161083b565b6106bf816108cf565b840191505092915050565b60006106d76026836107f8565b91507f4f776e61626c653a206e6577206f776e657220697320746865207a65726f206160008301527f64647265737300000000000000000000000000000000000000000000000000006020830152604082019050919050565b600061073d6020836107f8565b91507f4f776e61626c653a2063616c6c6572206973206e6f7420746865206f776e65726000830152602082019050919050565b60006020820190506107856000830184610682565b92915050565b600060208201905081810360008301526107a58184610691565b905092915050565b600060208201905081810360008301526107c6816106ca565b9050919050565b600060208201905081810360008301526107e681610730565b9050919050565b600081519050919050565b600082825260208201905092915050565b60006108148261081b565b9050919050565b600073ffffffffffffffffffffffffffffffffffffffff82169050919050565b60005b8381101561085957808201518184015260208101905061083e565b83811115610868576000848401525b50505050565b6000600282049050600182168061088657607f821691505b6020821081141561089a576108996108a0565b5b50919050565b7f4e487b7100000000000000000000000000000000000000000000000000000000600052602260045260246000fd5b6000601f19601f8301169050919050565b6108e981610809565b81146108f457600080fd5b5056fea2646970667358221220c4af7a6d4d2c47d8f641f357aa64332f1bd2a053e625bbed42702dbbfb05cad764736f6c63430008000033",
  "immutableReferences": {},
  "source": "// SPDX-License-Identifier: MPL\n\npragma solidity >= 0.4.0 <= 0.8.0;\n\nimport \"openzeppelin-solidity/contracts/access/Ownable.sol\";\n\ncontract Greeter is Ownable {\n    string private _greeting = \"Hello, World!\";\n/*\n    address private _owner;\n\n    constructor () public {\n        _owner = msg.sender;\n    }\n\n    modifier onlyOwner() {\n        require(\n            msg.sender == _owner,\n            \"Ownable: caller is not the owner\"\n        );\n        _;\n    }\n\n    function owner() public view returns(address) {\n        return _owner;\n    }\n*/\n    function greet() external view returns(string memory) {\n        return _greeting;\n    }\n\n    function setGreeting(string calldata greeting) external onlyOwner {\n        _greeting = greeting;\n    }\n}\n",
  "sourcePath": "/Users/sin/Documents/ethereumdev/greeter/contracts/greeter.sol",
  "compiler": {
    "name": "solc",
    "version": "0.8.0+commit.c7dfd78e.Emscripten.clang"
  },
  "schemaVersion": "3.4.1",
  "updatedAt": "2021-07-09T12:57:52.490Z",
  "networkType": "ethereum",
  "devdoc": {
    "kind": "dev",
    "methods": {
      "owner()": {
        "details": "Returns the address of the current owner."
      },
      "renounceOwnership()": {
        "details": "Leaves the contract without owner. It will not be possible to call `onlyOwner` functions anymore. Can only be called by the current owner. NOTE: Renouncing ownership will leave the contract without an owner, thereby removing any functionality that is only available to the owner."
      },
      "transferOwnership(address)": {
        "details": "Transfers ownership of the contract to a new account (`newOwner`). Can only be called by the current owner."
      }
    },
    "version": 1
  },
  "userdoc": {
    "kind": "user",
    "methods": {},
    "version": 1
  }
}